:100000000045002041200000A365000015200000ED
:100010001520000015200000152000000000000041
:10002000000000000000000000000000DD1C0000D7
:100030001520000000000000152000001520000021
:100040005D1D00005D1D00005D1D00005D1D0000C8
:100050005D1D00005D1D00005D1D00005D1D0000B8
:100060005D1D00005D1D00005D1D00005D1D0000A8
:100070005D1D00005D1D00005D1D00005D1D000098
:100080005D1D00005D1D00005D1D00005D1D000088
:100090005D1D00005D1D00005D1D00005D1D000078
:1000A0005D1D00005D1D00005D1D00005D1D000068
:1000B0005D1D00005D1D00005D1D00005D1D000058
:1000C0005D1D00005D1D00005D1D00005D1D000048
:1000D0005D1D00005D1D00005D1D00005D1D000038
:1000E0005D1D00005D1D00005D1D00005D1D000028
:1000F0005D1D00005D1D00005D1D00005D1D000018
:1001000053B94AB9002908BF00281CBF4FF0FF317E
:100110004FF0FF3000F00CB8ADF1080C6DE904CEE3
:1001200000F008F8DDF804E0DDE9022304B07047D0
:10013000704700BF2DE9F04786468C460846089E6A
:10014000154674461946002B40F0C2808542B2FA2B
:1001500082F245D94AB1C2F1200300FA02FC2EFA1C
:1001600003F3954043EA0C0C94404FEA154EA8B2B5
:10017000BCFBFEF8230C0EFB18CC08FB00F943EA8D
:100180000C43994528D9EB1808F1FF3704D299455B
:1001900002D9A8F102072B44A3EB0903A4B2B3FBD5
:1001A000FEFC0EFB1C330CFB00F044EA0344A042AF
:1001B00014D92C190CF1FF3304D2A04202D9ACF1AE
:1001C00002032C44241A43EA07401EB1D440002302
:1001D00034607360BDE8F0874746DDE76346F1E7CA
:1001E00092BB431B01214FEA154EAFB2B3FBFEFC9D
:1001F000200C0EFB1C330CFB07F840EA0343984528
:1002000062D9EB180CF1FF3004D2984502D9ACF159
:1002100002002B44A3EB0803A4B2B3FBFEFC0EFBCD
:100220001C330CFB07F744EA0344A7424ED92C19B0
:100230000CF1FF3304D2A74202D9ACF102032C44E3
:10024000E41B43EA0040C0E7C2F1200320FA03F1B7
:10025000954090402EFA03F303434FEA154EAFB298
:10026000B1FBFEFC0EFB1C10190C0CFB07F841EA5D
:100270000041884504FA02F422D969180CF1FF30D4
:1002800004D2884502D9ACF102002944A1EB08014F
:100290009BB2B1FBFEFC0EFB1C110CFB07F743EA03
:1002A00001439F420ED9EB180CF1FF3104D29F425B
:1002B00002D9ACF102012B44DB1B41EA004192E779
:1002C0006046E3E76146F7E76046A3E76346B7E7C2
:1002D000834206D916B9002108467BE7C6E900E04B
:1002E000F9E7B3FA83F78FB9834201D3724508D88F
:1002F000BEEB020460EB030301209C461EB9002103
:1003000068E73846FAE7C6E9004CF8E7C7F1200C81
:10031000BB4022FA0CF41C432EFA0CF120FA0CF329
:10032000B84001434FEA14490EFA07F5B3FBF9F858
:100330001FFA84FE09FB18300B0C08FB0EFA43EA87
:1003400000439A4502FA07F240D9E31808F1FF305A
:1003500004D29A4502D9A8F102002344A3EB0A0370
:1003600089B2B3FBF9F809FB183308FB0EFE41EA2A
:1003700003418E452CD9611808F1FF3304D28E4514
:1003800002D9A8F10203214443EA0040A0FB0298ED
:10039000A1EB0E014145CE46434602D306D14D4561
:1003A00004D2B9EB020E68EB04030138002EA6D08C
:1003B000B5EB0E0261EB030101FA0CFC22FA07F324
:1003C0004CEA0303F940C6E9003198E74046C5E727
:1003D0004346D9E7F0B52E4B2E4AC3F800262E48E7
:1003E000C3F8042685B0C3F808264921C3F80C26B3
:1003F000C3F81026C3F81426C3F81826C3F81C2621
:1004000006F042F805F017FC01A800F089FC234B28
:100410001B68834204D02248452106F035F8FEE7E8
:10042000039A2048492106F02FF81F48492106F079
:100430002BF84FF44041002006F01FFB044620B18A
:100440001A48452106F020F8FEE769469DF80800A5
:1004500000F030F8009B039D1D44019B1E8902F0B3
:1004600053FFAF1900F0AEFF00F082FF01F024FE51
:10047000AB5983F3088884F31488BFF36F8FBFF3FD
:100480006F8F7B6898470A48452105F0FDFFFEE71E
:10049000000001403546526E60740000D00100201B
:1004A000797400009C740000CB740000F0740000AC
:1004B0002375000008B5024638B1054800234521E0
:1004C00005F0E2FF6FF0150008BD0860FCE700BF13
:1004D0004675000021B1012906D06FF01500704764
:1004E000044B53F830007047024B03EBC0035868CD
:1004F000704700BF087100002DE9F04F7E4FDDB05E
:10050000DDE9688914461D46DDF8A8B13E6800F0B3
:10051000F9FE7A4B0122C3F800253CA804F0B0FA9A
:10052000B8F1000F07D0B9F1000F04DD4A4641468B
:100530003CA805F0A4FE23896289D4F80CA01344DA
:100540009A444FF00008C24551D80FA93CA804F0C6
:1005500009FB6A4B0022C3F80025C3F80025BBF154
:10056000000F04D020220FA9584606F038F80023C7
:1005700000932A464FF6FF73214609A805F05CFB5D
:100580000390002844D128460E9C00F079F984425B
:100590003ED8DFF870B1DFF864914FF0FF340DF111
:1005A0001E0307AA08A909A805F094FB00282FDB61
:1005B00040F09B80BDF81EA0BAF1100F31D1BDF8FC
:1005C0001C80B8F1200F23D1089943463CAA284645
:1005D00005F068FFE0B942463CA90FA805F0F2FB20
:1005E000474B1B68834213D101230393D7E7679BD3
:1005F000669AAAEB0809994528BF99464B46414699
:10060000284605F04FFF28B13C4B0022C3F80025D7
:100610003E686DE066994A463CA805F030FEC84445
:1006200091E7BAF1010F3FD1BDF81C30202BEFD874
:1006300008993CAA284605F035FF04460028E7D172
:100640009DF81C300493202B0AD8DBF80030DFF82B
:10065000B8800593059B9C4205DB0023C9F8003553
:100660004FF0FF349BE700F04DFEC9F800A51FA82E
:1006700004F006FAD8F8042058F8081B12681FA8DE
:1006800005F0FDFD17A91FA804F06CFA0022C9F8B7
:100690000025049A3CA917A805F091FF10B9C9F8E4
:1006A00000057CE70134D5E7BAF1220F7FF477AF7C
:1006B000631C3FF474AFDBF80030A342D0DDBDF81B
:1006C0001C30802BA4D808993CAA284605F0EAFEE5
:1006D00000289DD1E4B2BDF81C3000943CAA202132
:1006E0000FA800F013F80646BAE7039B002B8FD043
:1006F00030465DB0BDE8F08F0400002000A002503D
:10070000D001002010710000147100002DE9F047A5
:1007100096B016461D469DF87820374BDFF8E880E6
:1007200053F83210019103EBC20307465B68D8F817
:100730000090186802AA0144302301A805F02DFD9D
:10074000002851D1DDE901431C4403AA06AB214630
:1007500001A805F04AFD002846D1049A072A43D192
:100760002649059805F02BFF00283DD1079A082A55
:100770003AD12349089805F022FFA8BB02AA2146D6
:1007800001A805F01EFD78BBDDE901A30AEB030219
:10079000944229D1412B27D13544302303AA29463D
:1007A00002A8029605F0F9FCE0B9DDE90232134433
:1007B0009D4217D32A4602A906A805F0D7FA88B9A0
:1007C0002A4602A90EA805F0D1FA58B99AF80030C5
:1007D000042B07D1202306AA0AF10101384600F0B4
:1007E000A9FD28B1D8F80090484616B0BDE8F087BA
:1007F000044BD3F80090F7E7147100007575000002
:100800006C750000D001002004000020094A0B781C
:10081000400052F820108B4209D0013052F82000DD
:10082000834214BF4FF0FF304FF4C07070474FF455
:10083000C07070471C7100001FB50F4B13F83000DB
:100840000C4601F053F950B92068816810236A46BC
:10085000103905F027FE28B1206805F022FE4FF080
:10086000FF3006E005491022684605F0A8FE002882
:10087000F2D104B010BD00BF1C7100005074000024
:1008800013B5044605F0A5FA6A460146204605F070
:10089000B9F930B10448452105F0F6FD002002B059
:1008A00010BD0098FBE700BF7D7500002DE9F04109
:1008B000364B88B0064600200D461C68FFF70AFE3E
:1008C00006A9C0B201F012F9002858D12946FFF755
:1008D00001FE2C2407A9C0B204FB056401F006F94F
:1008E000002833D02C276F4306EB0708069BD8F867
:1008F000101011F0100138D14FF480720192244A87
:100900000092CDE90311224602910846FFF7F4FD5B
:100910000446204BF25906989A420CD1D8F80C2084
:10092000B8F808309B1806D28268934203D21A4B5B
:100930001B68A34220D035B38268002105F0DCFD9E
:10094000164A1748452105F09FFD13E0079805F06A
:10095000F0FD0746079805F0A4FD631EE21C13F89E
:10096000011FB942BED19342F9D11DB1069930465B
:1009700005F019FB0B4B1C68069805F092FD20460C
:1009800008B0BDE8F081084ADBE700BF04000020A2
:100990009C0F00203DB8F396D0010020C0750000E8
:1009A000CA75000000000020B87500007FB50D4634
:1009B000044600212846CDE9021105F0B3FA28B318
:1009C0002368194EB34203D103AA204605F03FFA2B
:1009D000E36AB34204D102AA0121204605F037FAA6
:1009E000DDE90232934288BF0393039BAB60039A15
:1009F0002946204600F08EFB0C4B1A68002A03DDC6
:100A00000B48572105F040FD04B070BD01A9FFF768
:100A100013FF019805F1080105F0E6F9AB680198AC
:100A2000039305F03EFDE2E73DB8F396340E002057
:100A3000F27500002DE9F84FDFF878B01B4C1C4D23
:100A4000884691469A4600260B9B9E4201D3002081
:100A50000FE00B9B174A9F1BB7F5806F28BF4FF421
:100A600080673B4606EB0A01404605F01BFD10B1CE
:100A70000120BDE8F88F0A993B465A46711848464E
:100A800005F025FD0028F3D1C4F800563E44C4F813
:100A90000456C4F80856C4F80C56C4F81056C4F8E6
:100AA0001456C4F81856C4F81C56CDE7000001408F
:100AB0003546526ED4090020F0B5904B43620E4685
:100AC0008F4B0365002187B004460846FFF702FDFF
:100AD00004F12001C0B201F009F801210020FFF764
:100AE000F9FC04F14C01C0B201F000F8204605F019
:100AF000EFF9054668B900221146204605F091F944
:100B0000054600B37F480022572105F0BDFC0123B4
:100B100090E07D488022572105F0B6FC01239D42DC
:100B200084F85830E7D194F858308DF80F30042B02
:100B300000F28380012B00F2878000F09A80FF236F
:100B400084F8583095E0204600F0FCF90028DED00B
:100B500002A805F0DEF90146204605F079FA18B141
:100B60006A482A465721D0E702A805F0DBF980F051
:100B7000010102AAC9B2204605F053F90246002835
:100B8000C0D102A805F0CEF9054660BB02A92046F7
:100B9000FFF70CFF9DF80F3084F85830033B012B12
:100BA00006D8284600F0E2F810B1FF2384F8583048
:100BB0009DF80F30023B022B0BD8002000F0C0F84C
:100BC00038B1FF2384F858305148452105F05CFCCA
:100BD000FEE794F85830FF2BF6D002AA00212046F9
:100BE00005F01FF993E79DF80F70012F17D11046FC
:100BF00002F036FC831E022B05460DD839462046EE
:100C0000FFF754FE434B1B68984205D0424B1D68CA
:100C1000A84214BF0525012584F8585083E7012117
:100C20002046FFF743FE3B4B1B6898420CBF9DF8E4
:100C30000F30052384F8583075E7052B7FF47FAF1C
:100C4000002000F093F811E002A92046FFF7AEFE65
:100C500094F85830DA1E012A14D8002000F086F8E3
:100C600000287FF46CAF002000F06AF800287FF4C1
:100C700066AF94F85830FF2B07D12548452105F081
:100C800003FCFEE7022BF4D1EDE70021012B234DFD
:100C9000019113D002AA204605F0C3F870B12D6867
:100CA0001022002102A805F0A5FCE06C05F0F9FB7C
:100CB000206A05F0F6FB284607B0F0BD002120466B
:100CC000FFF7F4FD134F3B689842E8D12B68984238
:100CD000E5D0114B1B689842E1D0019B0133019391
:100CE000019B012B00D0FEE7206A04F089FF3071E0
:100CF000236A5B6834603D68B360D1E7D4050020A7
:100D0000D401002063760000217600008F76000079
:100D1000B9760000D001002000000020040000206F
:100D200038B5064D044660220021284605F062FCD5
:100D300021462846FFF7C0FE38BD00BFD40D002075
:100D400013B5094B01A913F8300000F0CFFE48B9E4
:100D5000019805F04FFF0446019805F0A2FB2046DC
:100D600002B010BD0124FAE7247100001FB50F4B3B
:100D700001A913F8300000F0B9FEA8B9019802A942
:100D800002F018FB044668B99DF80B30032B03D121
:100D9000019805F0FDFE0446019805F082FB20460F
:100DA00004B010BD0124F7E70124F8E72471000026
:100DB0002DE9F34106460C4617461D460BB90026A1
:100DC00028E0184605F0AEF80028F8D16946FFF78C
:100DD00033FD009838B90124009805F062FB2046E5
:100DE00002B0BDE8F08101A904F0FEFF0028F2D1B5
:100DF000009805F056FB3046019905F065F9736AD5
:100E00005E686B79012B21D1002CD8D12B688342ED
:100E100098BF002621460020FFF75CFB6946C0B260
:100E200000F064FE0028D6D1009820233A463146CF
:100E300005F038FB04460028CDD1002DCCD03C680D
:100E40000D4BE41A18BF4FF0FF34C5E7022BB6D1A3
:100E50002B68012B05D98342B1D8B4FA84F4640914
:100E6000ADE7ACD1002CD5D0012CA8D12C79023C17
:100E700018BF0124A3E700BF3DB8F3962DE9F04F5A
:100E8000074685B00C46014600201646FFF7BEFC1B
:100E9000051E50DB3846E46D04F09BFF5FFA84F9D1
:100EA0006B1E09FB03084FF0000A4FF0010B4FF0D7
:100EB000FF349DB9BAF1010F03DD2148452105F04A
:100EC000E3FA631C06D07F2C2ADC013440F20113C4
:100ED0003460B380284605B0BDE8F08F6B1E0093E8
:100EE0000DF10F0201234146384605F0DBFA031EDF
:100EF000019322DB01220DF10F01384605F0E3FDDD
:100F0000019B40B15B4501D00AF1010A009DA8EBAD
:100F100009089B46CDE7B4F1FF3F08BF2C46F5E733
:100F20000223803C7371631004F001040133013427
:100F300033603471CEE70725CCE70125CAE700BF4F
:100F4000C576000038B5816A426D914208D0531CC5
:100F50008B4205D01348572105F096FA002038BD82
:100F600080291CD910485721F6E7446A056D04EB27
:100F7000C30405EBC30564686D68AC4202D00B483E
:100F80005721E9E701339A42EFD1914205D9436AEB
:100F900003EBC2035B68A342F1D10120DFE700232A
:100FA0001C46F0E7E8760000207700004F7700004D
:100FB00000B589B004A9022005F0F7FD9DF81020C6
:100FC000012A41D0254B2649032A08BF0B469DF82C
:100FD000132002929DF8122001929DF811202148C1
:100FE00000924921204A05F04FFA06A9052005F094
:100FF000DCFD9DF81820012A28D0184B1849032A37
:1010000008BF0B469DF81B2002929DF81A20019202
:101010009DF8192000921348144A492105F034FA2A
:101020009DF81030012B13D19DF81230032B0FD1F6
:101030009DF81830012B0BD00D48492105F024FAFA
:10104000022009B05DF804FB0A4BC0E7094BD9E761
:101050000948492105F018FA0020F2E77B770000E3
:1010600084770000987700008A770000D977000025
:10107000E97700007F7700000878000070B54B68C2
:1010800014461E4A03F0FF23934286B006460D46DF
:101090002FD10B68012B2CD104A9204602F08AF92C
:1010A0009DF81020012A26D0154B1649032A08BFA7
:1010B0000B469DF8132002929DF8122001929DF894
:1010C000112000921048114A492105F0DDF99DF8E0
:1010D0001030032B0DD12146304604F064FF20462A
:1010E00005F056FDA968204604F08CFE204602F06B
:1010F00041F906B070BD064BDBE700BF00010004FC
:101100007B7700008477000098770000D977000093
:101110007F7700002DE9F04F164689B005460C4652
:101120007448492105F0B0F93146284604F0CCFF57
:101130006B6A824620465E6804F0F4FEE8B1E86D12
:1011400004F042FEAF6A0023013F3344834201D2E0
:10115000013FFAE7BA4510D36748572105F094F9E3
:1011600007FB06F365480AFB0662572105F08CF978
:101170000123E37109B0BDE8F08F06A9022000F059
:10118000B5FC07A9052000F0B1FC079A21462846C6
:10119000FFF774FF6379012B4BD1DFF864B1574639
:1011A00041E02268C2F1010353449F423AD86B6A7E
:1011B000196853F8370003EBC703012A53F8083CBA
:1011C000A3EB0103A0EB0109049311D1079B039347
:1011D000E368022B08D04146284604F0E4FE22468C
:1011E0004146284604F015FF0399284604F0DBFE2B
:1011F00032464946404604F0D4FE049B42464146EE
:10120000CDE900962846FFF715FC2146284604F054
:1012100096FE23680133236020B1DBF800300133F0
:10122000CBF80030013FDDF81880002FB9D1012341
:101230002360022363710127BA45DDF8189006D2B6
:10124000484605F02EF9079805F02BF992E7236838
:101250009F424DD36A6ADDF81CB052F837100491F2
:10126000FB00083B11680391D1582A6DD0581368D0
:10127000A0EB03082379012B38D1039B3246C91A0E
:101280004846059104F08DFE0599009143464A4673
:10129000594601962846FFF7CDFB2146284604F023
:1012A0004EFE0223237118B1154A136801331360EF
:1012B00032464146584604F074FEDDE903234946B0
:1012C0009B1ACDE900865A462846FFF7B3FB214614
:1012D000284604F034FE2368013323600123237180
:1012E00030B1074A13680133136001E0022BDFD0ED
:1012F0000137A1E71F7800004878000077780000E8
:10130000340E002070B5094D2B780BB1002070BD54
:10131000074C0126C4F8006503F054FC18B92E7080
:10132000C4F80005F2E74FF0FF30F0E79C10002012
:1013300000A002502DE9F041DFF83080ACB01F462C
:1013400006460C461546FFF7DDFF0123C8F80035B9
:101350002A4633460097214603A805F043FD0023A3
:10136000C8F800352CB0BDE8F08100BF00A00250E5
:10137000BFF36F8F72B6124B4FF0FF32C3F880206D
:10138000C3F88420C3F88820C3F88C20C3F89020C9
:10139000C3F89420C3F89820C3F89C20C3F8802198
:1013A000C3F88421C3F88821C3F88C21C3F89021A5
:1013B000C3F89421C3F89821C3F89C21704700BF5B
:1013C00000E100E0164A4FF0FF3301215160C2F8FE
:1013D0004833C2F8083302F5C0425160C2F84833BE
:1013E000C2F8083302F598325160C2F84833C2F8A7
:1013F0000833A2F508320021C2F80015C2F80833FC
:1014000002F51832C2F80015C2F80833A2F51042EE
:10141000C2F808354FF08042C2F80833704700BF69
:1014200000B00040014B1B68184700BF08000020B7
:10143000014B1860704700BF0800002007B50B463D
:10144000002102460091034800F014F903B05DF852
:1014500004FB00BF251400002DE9F047058B04466E
:101460002807904611D4022905F0070540F0CD80E9
:10147000204604F02EFF78B10138218B042811D8C2
:10148000DFE800F0C3106D85950001290CBF45F021
:10149000100545F02005258388F31188BFF36F8F71
:1014A000BDE8F08701F0070AAA4500F0A6800027F2
:1014B000B9463E46A368002B00F0BD8041F008010C
:1014C000218388F31188BFF36F8FA168002900F092
:1014D000BB800D68002900F0B780D1F80480334646
:1014E00052462046C047002D76D02B6829461D461F
:1014F000F0E701F007035A1F012A1BD8002221F050
:101500000701062B276889B2C4E9002209D13B46AE
:1015100003E0628B013262831B68002BF9D141F03A
:1015200002012183204604F0D4FE00287BD041F044
:10153000200177E0042B0AD121F0070189B2218331
:10154000204604F0C6FE10B141F020012183218B1A
:1015500001F0070AAA4550D00027B946AAE7236937
:1015600021F0070141F00601062DD3F800902183F8
:101570002DD1B9F1000F40D041F00801218388F34B
:101580001188BFF36F8F3A492046C84729E021F000
:101590000701236941F0040189B2042DD3F80490B6
:1015A0002183E6D000273E464FF0040A82E721F06F
:1015B0000701236941F0050189B2052DD3F8089090
:1015C0002183D6D000273E464FF0050A72E7002758
:1015D0003E464FF0060A6DE72B4687E7B9F1000F4C
:1015E000D1D14FF02003EFF3118883F31288BFF3BA
:1015F0006F8F238B23F008032383258BEA062ED5D8
:1016000025F01003238305F007056669218B002E62
:10161000BFF66FAF00232768C4E9003321F007014C
:1016200041F001012183218B01F0070AAA454FF007
:1016300000097FF43FAF002F9BD041F008012183C8
:1016400088F31188BFF36F8F002FC7D03D683946EC
:1016500033465246204604F068FE2F46F4E7AB06B8
:101660007FF51AAF25F02003238305F00705FFE679
:10167000576300002DE9F04F8DB01D46531E824682
:10168000019103934FF00009039B5878252803F13B
:10169000010419D11E4600204FF0FF3802360346E0
:1016A0000290444631780396392954D81F2914D81A
:1016B000002900F0EE8101992520D047019930786A
:1016C000D04709F10209DFE7002800F0E281019923
:1016D000D04709F101090394D6E7A1F12002192AA4
:1016E000E9D801A757F822F051170000B7160000FB
:1016F000B716000051170000B7160000D117000000
:10170000B7160000B7160000B7160000B7160000A5
:101710001D18000051170000B71600003118000016
:10172000DD170000B7160000EB1700000B180000D3
:101730000B1800000B1800000B1800000B1800001D
:101740000B1800000B1800000B1800000B1800000D
:1017500008460136A6E7582900F0EB80A1F16302A4
:10176000D7B2172FA7D8172AA5D801A757F822F064
:10177000D919000057180000B7160000B71600006E
:10178000B71600003718000057180000B716000001
:10179000B716000037180000B7160000B716000093
:1017A000B71600000D190000B7160000B7160000AC
:1017B000AD190000B716000057180000B71600005A
:1017C000B71600000D190000B7160000371800000A
:1017D00001992520D04709F1010955E7029A02F045
:1017E000FE0202924FF00008B3E7002C0DDAB8F1C8
:1017F000000F0DDA029A002A00F0438124EAE47413
:101800000A2202FB0414303CA3E7B8F1000FF5DB19
:101810000A2202FB0812A2F130089AE7B8F1000F81
:1018200055F8042B80F22F81002A80F22E81544239
:10183000022202928DE7682903D1682B06D1482342
:1018400087E76C2902D16C2B00F02181002B7FF4FB
:1018500032AF0B467DE77A2B06D1752955F8046B1C
:1018600014D14FF0000B0CE06C2BF6D04C2BF4D1C4
:10187000073525F007037529D3E9006B03F1080547
:1018800006D120283BD1854F013C09E04FEAE67B99
:10189000BBF1000FF5DA7642814F6BEB4B0B013C4D
:1018A0000DF12D03059300230493304659460A2277
:1018B0000023FEF725FC059B303203F8012DB446CA
:1018C0000593049B5A46BCF10A0F8B4672F1000245
:1018D00003F1FF3106460491E7D2C3F1010B303327
:1018E0000DEB0306B8F1000FA6F104066DDA029BBA
:1018F000D9077DD4A8EB0B03A4EB0B0413E02B2832
:101900000ABF684F684F04F1FF34C9E770290FD14F
:1019100055F8042B0023FAB9634F644E053C6FF071
:1019200004034FF0050B029A920770D4A04666E0BC
:1019300078216C2B03D155F8042B002308E04C2BA5
:10194000F9D1073525F007031D465B6855F8082BCC
:10195000232825D1880621D5554F023C01F060018E
:10196000A1F1390B0DF12D0E002602F00F0109290E
:1019700088BF594430310EF8011D102A4FEA121168
:1019800041EA03714FEA131C73F1000306F1FF30C3
:1019900008D2C6F1010B06F13003A1E7454FDCE7A1
:1019A000414FDBE706460A466346DEE755F8046B1F
:1019B000304604F0FDFDB8F1000F834602DB4045E0
:1019C000A8BFC346384F4FF00008A8EB0B03002B0D
:1019D00092DDA4EB0804A6E755F8043B8DF8183017
:1019E000314F013C4FF0FF334FF0010B06AE9AE749
:1019F000A046EAE7029301992020D047029BB8F164
:101A00000108F7D524EAE472013C9144A41AB846CF
:101A100006E0049302920199D047029A049B9046F3
:101A2000424612F8010B0028F3D11A46013A15D5A7
:101A3000002BACBFC7EB03077F425B46013B15D5CC
:101A4000BBF1000FA8BF5F444F442646013E14D5AA
:101A5000002CA8BF3F1907EB080915E60493029272
:101A600001993020D047049B029ADFE70293019945
:101A700016F8010BD047029BE0E701992020D047E0
:101A8000E4E70122D5E6904663E6144661E64C237E
:101A90005FE648460DB0BDE8F08F00BF1679000044
:101AA0001479000018790000C47600002079000045
:101AB0001A7900001D79000008B504464FF0200295
:101AC000EFF3118382F31288BFF36F8F01F01CFCD8
:101AD000204600F0DFFA034804F0EEFB00F06AF85D
:101AE000FCE700BF2679000001F054BD70B5114B32
:101AF0001C680D46DCB1104B196800238B4202DBD9
:101B00006FF0010070BD224612F8106B864202D0C1
:101B100001331446F2E7E06810B96FF01200F1E704
:101B200005F03AF90028F8D02C600020EAE76FF0C1
:101B30000C00E7E70C0000203071000070B588B0A1
:101B400005460C46C0B269461646FFF7CFFF00288F
:101B50001BDB0098C8B14368029383682268019533
:101B6000CDE903360023CDE906230593C56804F0CB
:101B700098FC6DB12846084901AA04F033FE079885
:101B800008B9059B236008B070BD6FF01500FAE737
:101B90006FF01200F7E700BF41650000014802F056
:101BA000B7BC00BF94710000014910220A60704761
:101BB00010ED00E072B6404080F31188BFF36F8FE4
:101BC000BFF34F8F30BF62B6BFF36F8F704700BF58
:101BD00072B6494081F31188BFF34F8F20BF80F365
:101BE000118862B6704700BF40B2002807DB044A84
:101BF0004109012300F01F00834042F82130704763
:101C000000E100E040B200280CDB4309064900F087
:101C10001F0020330122824041F82320BFF34F8F61
:101C2000BFF36F8F704700BF00E100E0054B420932
:101C300000F01F0053F82220012303FA00F01040A7
:101C4000704700BF00E100E040B20028A8BF00F1EB
:101C5000604001F10101B8BF064B4FEA4111ACBF32
:101C600000F5614000F00F00C9B2B4BF195480F80C
:101C70000013704714ED00E030BFFFF7FDBF00BF59
:101C8000144A08B5144B22F07F029A60BFF34F8FBD
:101C9000BFF36F8FD3F8882022F47002C3F8882036
:101CA000D3F8882042F4A002C3F888204FF04042C5
:101CB000C3F83422BFF34F8FBFF36F8F0023E1EEE1
:101CC000103A02F0C5FA02F00BFB00F0ADF902F099
:101CD000CBFA00BF0000000000ED00E01EF0040F92
:101CE0000CBFEFF30880EFF30980816911F8021C43
:101CF0000229FFD001B504F04CFC01BD10F1160F14
:101D0000074B08D0984208D34033834205D98B4211
:101D100003D9044870474033F9E70020704700BFFB
:101D2000001D0020401D00200446084611461A46AA
:101D30000023E1EE103A084B202583F3098863B6AF
:101D40004FF0000383F31188BFF36F8FA04785F333
:101D50001188BFF36F8FFEE74045002001B5EFF318
:101D60000580A0F110004FEAC0000449014409C9F0
:101D70009847BDE80140024908470000006F000095
:101D8000851D0000704700BF70B5264B15469A6A46
:101D900012F0100F9A6A14BF1124102412F0080FC9
:101DA0009A6A18BF1224920706460AD5586B9A6A97
:101DB000140634D519B19A6A22F080029A6213246B
:101DC00001E06FF01500174B9A6A12F0010F9A6A42
:101DD00018BF142412F0200F9A6A18BF1524D206D7
:101DE00002D49B6A9B070AD50E4B5B68190506D582
:101DF0003146FFF783FF10B180F309880224094BB5
:101E00009A6A920642BF5A6A22F400525A629A6A49
:101E100042F0FF029A6200232B70204670BD6FF0E3
:101E20001500CCE700ED00E0134B9A6A12F0007F3A
:101E30009A6A14BF1E201D2012F0807F9A6A18BF74
:101E40001F2012F4002F9A6A18BF212012F4802F4D
:101E50009A6A18BF222012F4003F9A6A18BF232002
:101E600012F4803F9A6A6FEA02426FEA12429A6263
:101E700018BF2420704700BF00ED00E010B5194BDB
:101E80000246986A9C6A10F4805F14BF17201620DF
:101E900014F4006F9C6A18BF1820A40509D5986B2C
:101EA000986A000404D51AB19A6A22F400429A6230
:101EB00019200C4B9A6A12F4806F9A6A18BF1A2084
:101EC000D2050CD49B6A13F4005F18BF1C20054A8E
:101ED000936A43F47F43936200230B7010BD1B2071
:101EE000F5E700BF00ED00E070B5454B5B688AB0D8
:101EF0000546C3F30803002686F31188BFF36F8FEE
:101F000002F07F40B0F17F4F11D102F00C000828A1
:101F10000DD010074CBF0D4601260022033B8DF863
:101F20000720032B05D8DFE803F01E5D615A354614
:101F3000F3E700249DF807309BB92022294602A828
:101F400004F04DFB099B002E54D0C3F3080222B9C4
:101F50006FEA53236FEA4323099302A9204604F052
:101F600016FB0AB070BD264BDA6A9107E1D4DA6A33
:101F7000002ADEDBDA6A5200DBD55A69A96942F42D
:101F800080725A61BFF34F8FBFF36F8F5A6931F878
:101F9000021C22F480725A61BFF34F8FBFF36F8F20
:101FA0004DF6027291420AD09A6AD2B24AB10DF14C
:101FB000070201212846FFF7E7FE0446BAE72C682E
:101FC000B8E79A6A12F47F4F05D00DF1070101209E
:101FD000FFF754FFF1E79B6AB3F5803FA9D3FFF702
:101FE00023FFEAE70DF107020021E3E70DF1070106
:101FF0000020EDE723F4FF7323F00103ACE700BFFB
:1020000000ED00E0024A536943F01003536170474A
:1020100000ED00E0EFF30880EFF3098101B57246AF
:10202000FFF762FF01BD00BF044800232021C21852
:102030000133302B82F80013F9D1704700E100E042
:10204000002080F31488BFF36F8FFFF74DFD002051
:102050000D490860BFF34F8F0C4880F3088800F0EB
:102060003DF8202080F3118809484FF4046140189E
:1020700080F30988EFF314800221084380F3148869
:10208000BFF36F8FFFF7FCFD94ED00E000450020EB
:10209000C0140020BFF34F8F0549064BCA6802F4F5
:1020A000E0621343CB60BFF34F8F00BFFDE700BF7B
:1020B00000ED00E00400FA050749D1F89020002364
:1020C000C2F307221846934200DB7047C1F89830EC
:1020D000C1F8A0000133F6E700ED00E008B572B6E4
:1020E000002383F31388FFF7E7FF144B4FF0FF3211
:1020F000C3F88020C3F88420C3F88820C3F88C205C
:10210000C3F89020C3F89420C3F89820C3F89C200B
:10211000C3F88021C3F88421C3F88821C3F88C2137
:10212000C3F89021C3F89421C3F89821C3F89C21E7
:1021300062B6BFF34F8FBFF36F8F08BD00E100E0C1
:10214000024B034A0348022100F060B8000004205B
:10215000000000209C710000F0B5204E00258D424B
:1021600039DA446874B353B104F1FF3C14EA0C0F3C
:102170002FD11F2C2DD907681CEA070F29D1202C3D
:102180000768D0F808C05FFA82FE1ED9B4F1004F8C
:102190001DD8013CB4FA84F4C4F11F046400BEF1FC
:1021A000070F4CEA040C14D827F01F04144344F022
:1021B0001004C6F89820C6F89C404CF00104C6F8FC
:1021C000A040013201350C30C9E70824E7E73E247E
:1021D000E5E76FF015021046F0BD00BF00ED00E02E
:1021E000044B0522C3F89420BFF34F8FBFF36F8FCA
:1021F000704700BF00ED00E0BFF35F8F024B00228D
:10220000C3F89420704700BF00ED00E010B5034C08
:1022100001232278FFF7A0FF207010BD9D10002041
:1022200014490868082810B521D8FFF7E5FF124CBB
:1022300049680022904201F10C0105D10F4B187042
:10224000FFF7CEFF002010BDC4F8982051F80C3CD9
:1022500023F01F03134343F01003C4F89C3051F8DC
:10226000043C43F00103C4F8A0300132E2E74FF030
:10227000FF30E8E7B471000000ED00E09D100020A1
:10228000014B1860704700BF100000200E4A012368
:10229000C2F840354FF080424FF08051C2F8783597
:1022A000D1F83001082808D1D1F83411052904D813
:1022B0000648415C09B1C2F838364FF0804301222C
:1022C000C3F880250020704700E0014062790000DB
:1022D00020B1034B800143F001031847704700BF52
:1022E00000710000084B70B5C31A0D4607499B10DA
:1022F000044659430648402204F0A4F92B460146FF
:102300002046BDE8704018474C0E0020B76DDBB684
:102310009C6E000073B50C4C0C4A4023041B0093C8
:102320000D460B460A49A41061430646094804F0CD
:10233000B5F9011E05DA30462B4602B0BDE8704003
:10234000184702B070BD00BF4C0E00200D670000A2
:10235000B76DDBB69C6E000010B54FF02003EFF3B5
:10236000118483F31288BFF36F8F074A136823F039
:102370000201DB07116002D4012004F099FC84F310
:102380001188BFF36F8F10BD9C0E0020002270B526
:10239000012104461046FFF757FC0F4801F092FA5E
:1023A0000E4B984215D104F03AFC26690C49304690
:1023B00003F0E0FF00280BDB0125356424690849A0
:1023C00004F11C0003F0D6FF002801DBE5640020C7
:1023D00070BD6FF00400FBE7192400000000AD0B96
:1023E000D471000070B501460C2309484B43C41852
:1023F000D4E90E56403300221844A26304F00FF9CA
:102400002DB132462B460348BDE87040184770BDD9
:102410004C0E00209C6E000010B1012804D07047C3
:10242000034B1B6C5B0701D1FFF7DCBF704700BF9C
:102430004C0E002008B54FF02003EFF3118183F319
:102440001288BFF36F8F124A136843F002001060C6
:10245000DA0708D481F31188BFF36F8F0120BDE83C
:10246000084004F0E9BB4FF08043D3F80C24D3F8C4
:102470000C34DB07EED5074804F0D1F881F311885E
:10248000BFF36F8F0020BDE80840FFF7ABBF00BF70
:102490009C0E00208C0E00202DE9F8433649BFF336
:1024A0005B8F0746012251E8003F41E800200028E9
:1024B000F9D1BFF35B8F33B9304931484B60CB6002
:1024C0008A6003F06AFF7B1E012B2DD8012F07D1F4
:1024D0004FF08043D3F81C3403F00303012B23D0C7
:1024E00004F079FC054608BB264B1B78F3B14FF08E
:1024F00080430222C3F808230646DFF88C904FF091
:1025000080444FF00108D4F81824D4F81834D203CA
:1025100016D503F00303012B01D0012F10D12DB3E9
:1025200086F31188BFF36F8FBDE8F8834FF0200367
:10253000EFF3118683F31288BFF36F8F0125DCE779
:102540003046FFF745FBD4F81835002BDBD1D4F823
:102550000421002AD7D0C4F80431D4F80431C4F8D7
:102560001885C9F88081C4F80880CCE74FF0804313
:102570000222C3F80423D7E7480E0020380E0020BB
:10258000680E0020B114002000E100E008B5074803
:1025900004F002FC38B10648FFF772FE0448FEF76B
:1025A00047FF002008BD6FF01200FBE7D86E000067
:1025B000B52500000A2838B5074D044604D1AB689C
:1025C0000D215B6828469847AB6803485B68E1B219
:1025D0009847204638BD00BFD86E0000024B0B6004
:1025E00001231360704700BFA00E00200048704711
:1025F0002872000010B504F0BFFB034C206004F00B
:10260000B7FB6060002010BDA00E00204FF080429C
:10261000D2F81015D2F8103501F01E0123F01F0377
:102620000B4343F00103C2F81035024B00221A702D
:10263000704700BF9E1000204FF08053D3F8303118
:10264000082B20D14FF08042D2F81015CB071AD5B5
:10265000D2F8103501F01E0123F01F030B43C2F81E
:102660001035D2F808315BB1D2F8103523F01F03D2
:102670000B4343F00103C2F810356FF08B00704735
:10268000024B01221A700020704700BF9E100020EC
:102690002DE9F0410D46164604F06AFB3146074627
:1026A000284604F043F828B3B5FBF7F307FB1353B0
:1026B00003BBB6FBF7F407FB1464DCB9B74213D8CD
:1026C00004F056FBDFF834800746FFF7B5FF0446F9
:1026D00068B9284601F018FD98F800300BB1FFF7F3
:1026E00095FFF61B3D44F0D12046BDE8F0816FF028
:1026F0008B04F9E76FF01504F6E700BF9E10002089
:102700002DE9F8430E463046194617461C4604F09C
:102710000DF830B346EA040515F0030521D11CB3CA
:10272000DFF84C906319032BA6EB050807D80F4A76
:10273000D2F80034DB07FBD50020BDE8F883FFF7B3
:102740007BFF58B97B1B4046196801F0FDFC99F8E6
:1027500000300BB1FFF75AFF043DE3E76FF08B0049
:10276000EBE76FF01500E8E72046E6E700E0014000
:102770009E10002030B54068057B01F01F04B2F5C3
:10278000001F85B044EA451405D1204601F076FBD0
:10279000002005B030BD0025B2F5800FCDE902550F
:1027A00014D1B3F1007F0CBF042305238DF808304A
:1027B0000023194602AA204601F07CF9234B9842D7
:1027C0003DD10121204601F00BFBE1E7B3F1C06FE1
:1027D00027D0B3F1007F14BF012302238DF8083006
:1027E000836823FA01F111F00101E1D1B2F1A07F78
:1027F000DED104F01F03620903F5E07313D0012A50
:1028000020D1134A52F82330DB07D1D40DF107054C
:102810002946204601F08EFA0E4B984206D00395C9
:10282000C6E70323DAE74FF0A042EBE7284601F0C2
:10283000D1FA064B9842F2D06FF00B00A9E76FF087
:102840001500A6E751F82330FFDE00BF0000AD0BF6
:10285000000300500400AD0B10B501F0ABFA0446C4
:1028600068B901F07FFA084B98420AD1074821461F
:1028700001F05AFA224605210620FFF7E5F900206B
:1028800010BD6FF00400FBE70000AD0B91280000C5
:10289000420970B5034602D0012A17D070BD0D4E13
:1028A000326951680029F9D003F01F0301250C6833
:1028B0009D400029F2D08A682A4002D04B683046F9
:1028C00098472CB1236821461C46F2E7024EE7E701
:1028D0002346F8E7C46E0000B06E00002DE9FF410A
:1028E00047683B7B01F01F0545EA43150E46284625
:1028F0000DF10701144601F01DFA14F4403F804623
:102900000DD1284601F0E0FA3D4B984503D19DF8E2
:10291000070001F059FA002004B0BDE8F08100235F
:10292000194602AA2846CDE9023301F0C3F8344B18
:10293000984214D1804503D19DF8070001F044FA74
:10294000A3034ED540F206332340B3F5837F1AD05C
:102950000DD8062B18D005D8B3B1022B33D06FF0A9
:102960001500D9E7B3F5807FF9D101230CE040F2DF
:102970000222934229D0B3F5407F28D0B3F5007FDF
:10298000EDD1022300E007238DF8083084F4803372
:10299000C3F30043E0068DF8093054BFC4F340137D
:1029A000032321038DF80A3013D57A680123B3403D
:1029B000C2F80835002202A9284601F03BF9104B65
:1029C0009842A8D0CBE70423DEE70523DCE7032306
:1029D000DAE7620341BF01237A68B340C2F80C35DD
:1029E000E8E7E3064FF0000354BFC4F340140324A8
:1029F0001A4602A928468DF8084001F05BF8DEE788
:102A00000000AD0B036803F01F025B09026004D0F5
:102A1000012B034818BF002070474FF0A0407047BB
:102A2000000300502DE9F04FDFF8849185B0154682
:102A3000824600EB81014FF00108514503D100208F
:102A400005B0BDE8F08FDAF8003003F07F04C3F37F
:102A500043277F2C4FEA134308BF4FF0FF34222B4C
:102A600000F2A380DFE803F012232B442E3544A1AB
:102A7000A1A1A14773A1A1A1A1A1A1A1A1A1768119
:102A80008487A1A1A18A909396999C00C5F80C45D2
:102A9000601C1BD003A80394FFF7B4FF039B08FA44
:102AA00003F3C0F8083501264FF0010B2CE0C5F800
:102AB0001445631C0AD000264FF0000B24E0C5F833
:102AC0000845E5E7621CC5F808456CD10AF1040A1F
:102AD000B3E7631CC5F80C45F8D0012603A803949E
:102AE000FFF790FF039B08FA03F3C0F80C35DBE710
:102AF000C5F81045DDE7C5F80845002FD9D1671C9A
:102B0000E4D00026B3460627DAF80030019303F438
:102B10000052002A03A81CBF01264FF0000B0394AB
:102B2000FFF770FF039A019B00EB8200C3F3C1140F
:102B3000D0F800273B0243EA840343EA0B0302EA8E
:102B40000902134343EA4603C0F80037BEE7C5F85D
:102B50000C45D2E7C5F86045661CDAF80030B5D000
:102B6000C3F38033002BB8D094E7C5F86445F3E78E
:102B7000C5F86845F0E7C5F86C45EDE7C5F82445AC
:102B8000621CA3D0012697E7C5F8284580E7C5F861
:102B90003045F5E7C5F83445F2E7C5F83845EFE7C5
:102BA000C5F83C45ECE7002698E76FF0850047E75D
:102BB000F0F8FCFFF8B5044607690D4604F00BF980
:102BC00090B92C4B1B787BB16426606803F0C1FE82
:102BD000E0B9012004F017F8013EF6D1F4E786F3DE
:102BE0001188BFF36F8FEFE74FF02003EFF31186EB
:102BF00083F31288BFF36F8F6068314603F0A9FE3C
:102C000090B986F31188BFF36F8FEDE74FF0200383
:102C1000EFF3118683F31288BFF36F8F606831463C
:102C200003F097FE0028DAD03B691D7062683869AE
:102C30001368C3F844050120C3F848050020C3F811
:102C40002001D3F82051C3F858015268D3F8580135
:102C5000D20608D5626812680820C2F800054FF451
:102C60008002C3F8042301229A6081F31188BFF324
:102C70006F8FF8BDB1140020F0B54B79012B26D031
:102C8000032B21D110258B79032B1DD1CE790EB1C9
:102C9000012E19D10A7912B1022A15D10E220B6820
:102CA0004468B3F5164F276867D02DD8B3F5165F83
:102CB00066D016D8B3F5966F64D00AD8B3F5967F70
:102CC00063D0B3F5167F63D06FF0850054E0002524
:102CD000D9E7B3F5166F5ED0B3F5965FF4D1384BF4
:102CE0003CE0B3F5E14F59D007D8B3F5615F57D059
:102CF000B3F5964FE8D1334B30E047F61224A342A8
:102D0000E2D14FF4000329E0B3F5613F4AD013D874
:102D1000B3F5963F49D009D84DF6C024A34246D01A
:102D2000B3F5614FD0D14FF46B0317E0B3F5E13F3A
:102D3000CAD14FF0EB7311E0B3F5612F3AD008D848
:102D4000214CA34239D0B3F5E12FBDD14FF0E86358
:102D500004E01E4CA342B7D14FF080530469C7F87A
:102D60002435436835431B682A43C3F86C2503C9DF
:102D7000231D83E803000020F0BD4FF41D03EDE7A1
:102D8000134BEBE74FF49E23E8E74FF4A033E5E75E
:102D90004FF41C33E2E74FF41D23DFE70D4BDDE773
:102DA0000D4BDBE74FF06C73D8E70C4BD6E74FF4D5
:102DB0006503D3E74FF07063D0E74FF08063CDE752
:102DC00000B0130000A04E0090D0030040420F005E
:102DD0000050270000C0750000F03A0000903A0152
:102DE0002DE9F7438046002201210220FEF72CFF47
:102DF0000220FEF7F9FED8F80470D8F810603C689D
:102E00000021C4F80015C6F80080D7F80C9001AA7C
:102E1000484603F068FD051E4CDB019BD9F80020F5
:102E200019791868FFF7FEFD051E43DB311D40468A
:102E3000FFF722FF054600283CD17B68990712D591
:102E400006F1180001F08EF91E4B984236D1307E03
:102E500004F10C0204F5907103F0D7FE337E0120DB
:102E6000984000F0C7FC0823C4F800353B7A53B9FA
:102E7000C4F81031D4F810317369C4F83435012323
:102E8000C4F8383523607B689A075CBF4FF48073C1
:102E9000C4F804337B68DB0644BF4FF48003C4F8F6
:102EA00004333369C4F844350023C4F8483501239A
:102EB000A360E360284603B0BDE8F0836FF004052B
:102EC000F8E700BF0000AD0B70B5012383400E4A48
:102ED000BFF35B8FDC4352E8001F01EA040542E8C0
:102EE0000056002EF7D1BFF35B8F4FF48032824043
:102EF0000648C0F80823BFF35F8FBFF36F8F0B4204
:102F000014BF0120002070BDC40E0020001001403D
:102F100070B40E49D1E90034D01AC31844F100044A
:102F200022F07F46C1E90034A6F50013B3F5400F47
:102F300009D2074B1B681A0A1B069C19054B42F164
:102F40000005C3E9004570BC01F02ABA3801002031
:102F5000C80E00204001002011B3BFF35B8F012396
:102F6000104A834052E800CF4CEA030C42E800C10B
:102F70000029F7D1BFF35B8F0B4A4FF480338340B6
:102F8000C2F80433094BBFF35B8F1B68BFF35B8F41
:102F9000C340DB0742BF064B4FF40032C3F80021A9
:102FA000704700BFC40E002000100140C00E00207A
:102FB00000E100E00D4B1868010A0006BFF35F8FC7
:102FC0000B4BD3F80435181841F10001B3F5801FFD
:102FD0000AD2084BD3E90023904271EB030303D2DA
:102FE00010F1807041F10001704700BFC80E002051
:102FF00000100140400100202DE9F04F85B0164639
:103000001F469DF840A00446FFF75EFF0190FFF7C2
:10301000D1FFB04271EB070354D23E4B301A67EB3D
:103020000101984271F100014FD23B4B03EB0413B5
:10303000D3E902239F4208BF96425ED037494FF43E
:10304000803804F1500508FA04F8AD00C1F848834F
:103050002046ADB203F0C6FC26F07F4B05F180455B
:1030600004F5A87305F58835DC464FF00309029393
:10307000029A2CF07F4341F82230C1F84483D1F802
:103080000435274A6FF00200C01A604420F07F40E8
:10309000904232D9286868B1D1F804350393A3EB84
:1030A0000B0020F07F40B0F5000F26D9204603F03A
:1030B00099FC039BBAF1000F07D109EB030C09F14E
:1030C0000109D5E7BAF1000F09D06FF015052046C8
:1030D0000199FFF741FF284605B0BDE8F08F0123B5
:1030E000104ABFF35B8FA34052E8000F184342E839
:1030F00000010029F8D1BFF35B8F07490E98230127
:1031000001EB0412C8500F9B5360C2E9026700250F
:10311000DDE700BF01008000280100200010014011
:10312000FDFF7F00C00E00207FB51C4C1C4BC4F877
:103130000833C4F848331B4B00254FF0FF304FF0E5
:10314000FF31C4F80855C3E902014FF48033C4F8D5
:103150000433154B02264FF400320121C4F80463F6
:103160001120C3F880212A46FEF76EFD1120FEF7DC
:103170003BFD0E4A0123A360236013600C4B0D4AF4
:103180000093CDE9015500232846FFF735FF30466F
:10319000FFF782F9284604B070BD00BF001001405F
:1031A00003000F002801002000E100E0C40E002011
:1031B000112F0000FFFF7F002DE9F7432F4CD4F8BB
:1031C000043399070BD5D4F8043143B12C4A0023BA
:1031D000C4F80431D4F80431136801331360D4F80F
:1031E0000433DA032AD5BFF35B8F264B53E8002F55
:1031F00022F0010143E800100028F7D1BFF35B8FF4
:10320000D30702D4D4F84031C3B10025C4F84051EB
:10321000D4F84031FFF7CEFE4FF02003EFF31182D8
:1032200083F31288BFF36F8F174BD3E90267B04265
:10323000B94106D282F31188BFF36F8F03B0BDE8A6
:10324000F0834FF0FF384FF0FF39C3E90289D3E92B
:1032500000101D604FF48033C4F84833C4F8405167
:10326000D4F8403182F31188BFF36F8F0029E5D085
:10327000009032463B4628468847DFE70010014071
:10328000C80E0020C00E0020280100201FB5431CDE
:1032900023D0012823DD134A134B9042D4BF0446A8
:1032A0001C46FFF787FE114B0F49D3E90023801A14
:1032B000B0F5000F28BF002404448C4228BF0C4600
:1032C000A2180B4900914FF00000CDE9010043F135
:1032D0000003FFF791FE04B010BD034CE1E70124A9
:1032E000DFE700BFFEFF7F00FFFF7F003801002007
:1032F000112F000008B5FFF75DFE024B1B68C01AD6
:1033000008BD00BF3801002010B5084C01236360E0
:103310001120FEF777FC064BC4F80833C4F8483395
:10332000044B4FF40032C3F8802110BD001001405F
:1033300003000F0000E100E030B50C490C4D0B68B4
:103340000246002405EB0310D0F80808C0B218B9F3
:1033500004B10B60002007E00133072B4FF001049C
:10336000F0D90B606FF01B00136030BDCC0E002055
:1033700000E0014030B5816885B0103921F00704C4
:10338000054603F0D6F810220146684603F032F9EC
:1033900007491022684603F022F910236A462146A5
:1033A000284603F094F8003818BF012005B030BD5E
:1033B0005074000030B50D46816887B0102302AA12
:1033C0001039044603F06EF8002802DA012007B035
:1033D00030BD102202A9204603F075FB00283AD127
:1033E0001E49102202A803F0EAF800280CBF0123AE
:1033F00002232B70204603F052FB012301460DF1FE
:103400000702204603F04EF80028DFDB9DF8073066
:1034100003F00F021B096A702B7101220DF10701E5
:10342000204603F050FB10B96B78042B03D901231D
:103430006B7000232B71A268183A22F00702083A39
:10344000A91C204603F052FB0028BFD1E91C2046EE
:1034500003F0A5FBBBE70323CBE700BF50740000DC
:10346000F0B5354F460085B00546694657F8260049
:1034700003F09BFB044610B1FF2005B0F0BD013600
:1034800002A957F8260003F090FB012837D12B48FA
:103490002A46492102F0F8FF294B02938DF80C408F
:1034A0009DF800609DF80870264C00222078314677
:1034B00003F0FBFA50B36078394603F0F6FA28B30C
:1034C000A378042B03D09DF8031099421ED1E37812
:1034D000042B03D09DF80B10994217D12379042BAC
:1034E00010D16279022A1DD1174B18482A4649216A
:1034F00002F0CAFF6079831E022BBED9BCE7002808
:10350000CED0B9E79DF802109942EAD00132032AE1
:1035100004F10604CAD10E482A46492102F0B4FF3C
:103520000120AAE7032A05D00A4B0B49042A08BF49
:103530000B46DAE7094BD8E7BC720000227A00009C
:1035400003010303B77A0000047A00006D7A0000DB
:10355000917A0000097A00001B7A0000FF790000D0
:103560004FF08053D3F83021082A06D1D3F83431F4
:10357000052B02D8024AD05C70470020704700BF7C
:10358000CF7A0000024AD2F80034002BFBD07047FB
:1035900000E0014010B54FF08053D3F83021082AE5
:1035A0004ED14FF080420021C2F80C11C2F8101128
:1035B000C2F8381502F54042D3F80414C2F82015B9
:1035C000D3F80814C2F82415D3F80C14C2F828153F
:1035D000D3F81014C2F82C15D3F81414C2F830150F
:1035E000D3F81814C2F83415D3F81C14C2F84015D7
:1035F000D3F82014C2F84415D3F82414C2F848159F
:10360000D3F82814C2F84C15D3F82C14C2F850156E
:10361000D3F83014C2F85415D3F83414C2F8601536
:10362000D3F83814C2F86415D3F83C14C2F86815FE
:10363000D3F84014C2F86C15D3F84434C2F870358E
:10364000FFF78EFF18B1414B414AC3F88C26FFF7B4
:1036500087FF18B13F4BFB22C3F81825FFF780FF07
:1036600070B14FF080414FF08053D1F8E42ED3F881
:10367000583222F00F0203F00F031343C1F8E43E67
:10368000FFF76EFF20B1344B4FF40072C3F84026B1
:103690004FF08053D3F83031082B09D14FF08043DD
:1036A000D3F80024D20744BF6FF00102C3F800240E
:1036B0002A4AD2F8883043F47003C2F88830BFF346
:1036C0004F8FBFF36F8F4FF08053D3F83021082A0C
:1036D0000ED1D3F83431052B02D8214AD35C3BB14B
:1036E0004FF01023D3F808224FF08043C3F8582539
:1036F0004FF01023D3F80022002A03DBD3F8043262
:10370000002B22DA174901234FF01020C1F80435AD
:103710001224FFF737FFC0F80042FFF733FFC0F86D
:103720000442FFF72FFF0023C1F80435FFF72AFFFB
:10373000BFF34F8F09490C4BCA6802F4E062134390
:10374000CB60BFF34F8F00BFFDE710BD00500040BE
:103750004881030000F000400090024000ED00E0CE
:10376000C97A000000E001400400FA0530B50468A1
:10377000CCB1BFF35B8FB4FA84F3C3F11F03DBB2A8
:1037800001229A4024EA020250E8005FA54204D1D7
:1037900040E8002CBCF1000FF6D1BFF35B8FE6D1FF
:1037A00002480B7030BD0248FCE700BF0000AD0BC3
:1037B0000200AD0B10B50368CB40DB0714D4012326
:1037C0008B400268BFF35B8F43EA020150E8004F71
:1037D000944204D140E8001CBCF1000FF6D1BFF3C5
:1037E0005B8FEED1014810BD0148FCE70000AD0B36
:1037F0000400AD0B014BC3F80405704700F0014015
:10380000F7B5044618B1012823D003B0F0BD4FF03E
:1038100080430222C3F80823C3F80401D3F804212B
:103820000122DA60064601238DF8073042F2107556
:103830004FF08047D4B1012CE7D1D7F80C3403F412
:103840008033AEBB83B3012003F0DDF9013DF4D139
:103850002AE04FF080430022C3F80803C3F8002198
:10386000D3F8002158600DF10706DCE7D7F81834CB
:1038700003F480333EB9002BC7D0012003F0C3F915
:10388000013DF3D1C1E7D7F8182402F003023260FA
:10389000002BBAD09DF80700012803D103F0B3F93B
:1038A000013DC7D1012CB0D1054B00225A71ACE7C4
:1038B000D7F80C2402F001023270002BEAD1F3E7B2
:1038C000D00E0020044B1A7922B9012218609A8088
:1038D0000248704702487047D00E00200000AD0B30
:1038E0000C00AD0B10B54FF08043D3F800216AB146
:1038F0000022C3F80021D3F800210122C3F80823D5
:10390000114B587910B95A711B6898474FF0804392
:10391000D3F8042172B10022C3F80421D3F80421A2
:10392000D3F81824D3F81824920704D10122C3F83D
:1039300018259A6010BD0222C3F80823024BBDE887
:1039400010401B6801201847D00E0020036803F0C8
:103950001F025B09026004D0012B034818BF00203E
:1039600070474FF0A040704700030050034A4309DE
:1039700000F01F00D35C1844C0B27047E07A00002A
:1039800008B5FFF7F3FF034B083033F81000C0F31E
:10399000401008BD3000002008B5FFF7E7FF034BDB
:1039A000083033F81000C0F3400008BD300000209C
:1039B00008B5FFF7DBFF034B083033F81000400B6E
:1039C00008BD00BF3000002070B50546FFF7CEFFF0
:1039D0000C4C08300E4634F81030DA0508D5C3F325
:1039E000432304EBC302284654F833305268984707
:1039F000A3682BB1E26831462846BDE870401847FD
:103A000070BD00BF3000002010B5FFF7AFFF124AB5
:103A1000083032F81030D9051CD5C3F3432123F404
:103A2000F85322F8103002F10E04002034F8023F5F
:103A300013F4807F03D0C3F3432399420AD00130AB
:103A40003028F3D1002342F831300448BDE810405B
:103A5000FFF7B0BE10BD00BF30000020A400002062
:103A6000F0B50146104A114C00200125064602F12E
:103A70004043A3F5C2439B0805FA03F3194204D05F
:103A8000176817B11660176818430432A242EED1C6
:103A9000074BD3F87C2132B10022C3F87C21D3F844
:103AA0007C3140F00040F0BD0061004020610040EA
:103AB000006000402DE9F04385B0054690461E4663
:103AC000FFF754FF044609B32846FFF765FF18B116
:103AD0002846FFF755FF38BB0023CDE900338DF8AA
:103AE0000E308DF80F300DF10F020B4628460DF108
:103AF0000E0103F0DFF84A4A04F1080132F81130F0
:103B000023F0020343F0010322F81130B8F1000F53
:103B100031D0284698F80070D8F80490FFF73CFFA1
:103B200020B1B9F1000F1BD03E4826E03C4B04F118
:103B3000080C33F81C1021F02001C904C90C23F82B
:103B40001C10B9F1000F0BD0032FEDD8D8F80420CA
:103B500092F800E0A7B9344B0EF5A27E43F82E7020
:103B60002F4A04F1080132F8113023F01C0343EA14
:103B7000870322F811304EBB2C4805B0BDE8F08316
:103B80004FEA8E0202F1804202F5C04241EA4E3114
:103B9000D2F8100520F00300C2F81005D2F8100585
:103BA00020F44F3020F44070C2F81005D2F8108590
:103BB000280200F47C5040EA080040EA074041F047
:103BC000200123F81C10C2F81005C9E7D6E90076D9
:103BD0002846FFF719FF002FCED0114DD5E900235D
:103BE000974201D19E4218D011480DF10F01FFF705
:103BF000BDFD0E4B9842C0D19DF80F2045F83270A4
:103C000005EBC20308345E6035F8143043EA422302
:103C100043F4807325F81430AEE70022EEE700BFCE
:103C2000300000200400AD0B006000400000AD0B30
:103C3000A40000202DE9FF4104461646FFF796FE3A
:103C4000054631B32046FFF7A7FE20B92046FFF70F
:103C500097FE002860D1314F05F1080837F8183079
:103C600013F01C0F02D04B78012B55D001238DF897
:103C70000F300023CDE900134A1C8B1C20460DF1A8
:103C80000F0103F017F837F8183043F0030327F853
:103C900018301EB9224804B0BDE8F0812046FFF775
:103CA0007BFEC8B31D4F96F800C005F108006146C1
:103CB00037F81050890025F0200501F18041ED040E
:103CC00001F5C041ED0C27F810500023C1F8103564
:103CD0007278002ADED0D1F81035B67823F4991323
:103CE00023F4F853C1F8103512042302D1F810E57B
:103CF00002F4403203F47C531343320543EA0E03CB
:103D000002F4801245EA4C35134345F0200527F8AC
:103D10001050C1F81035BDE70248BCE73000002064
:103D20000000AD0B0400AD0B014BC3E9020170476D
:103D30003000002010B50446FFF722FE50B12046A7
:103D4000FFF714FE044B083033F8103003485B0BC8
:103D50000B7010BD0248FCE7300000200000AD0BE6
:103D60000400AD0B70B50F4C94F87860BEB90E4DE1
:103D70006022314604F1100002F03CFCC5F87C6181
:103D80000620D5F87C31FDF72FFF4FF00043C5F832
:103D900004330648012384F87830636770BD044813
:103DA000FCE700BF30000020006000400000AD0BC9
:103DB0000500AD0B034B93F87800003818BF0120C5
:103DC000704700BF3000002001460148FFF7F2BCF9
:103DD000A000002001460148FFF7C8BCA000002059
:103DE00037B50446FFF7CCFD08B32046FFF7D4FDF6
:103DF0000546E0B92046FFF7DBFD03B29B0003F167
:103E0000804202F5C24203F1804303F5C0431560CE
:103E10001268D3F8102542F00102C3F8102521B131
:103E2000144A01238340C2F8043303B030BD204656
:103E3000FFF79CFD104B083033F81030C3F38203BA
:103E4000042B12D0052B12D001A80194FFF77EFDA0
:103E5000019BD0F81015D94001F001010231204634
:103E600003B0BDE8304002F06EBF0321F7E7022146
:103E7000F5E700BF006000403000002010B50446A8
:103E8000FFF77EFDC0B12046FFF786FDA0B92046B2
:103E9000FFF78EFD0B4A01238340C2F8083303B2BB
:103EA0009B0003F1804303F5C043D3F8102522F0B3
:103EB0000302C3F8102510BD20460021BDE81040C4
:103EC00002F041BF0060004073B50446FFF74EFDAD
:103ED000184E00F1080536F81530DB0727D52046C7
:103EE000FFF7CCFF2046FFF74BFD40B12046FFF720
:103EF0005FFD114B00F5A270002243F82020204600
:103F0000FFF782FD002301A826F815300194FFF782
:103F10001DFD019B00EB8300084BD0F800271340E8
:103F200043F00203C0F80037054802B070BD0548F1
:103F3000FBE700BF3000002000600040F0F8FCFF0D
:103F40000000AD0B0400AD0B2DE9F04F644BD3F82E
:103F50000403C0B285B040F00040FFF781FD051EAC
:103F600080F2A1804FF0A043D3F820250292C3F83D
:103F70002025D3F820280392C3F820280DF1080843
:103F80004FF00009574B09EB030B4FE093FAA3FAEC
:103F90009BF80040BAFA8AFA4AEA44142046FFF72E
:103FA000E5FC514B019408304FEADA0233F8107007
:103FB0000AF007030120984018F8023023EA0003B2
:103FC00008F8023001A8FFF7C1FC019B03F5E0737C
:103FD000B90850F82330C7F38206C3F3014A4B07F0
:103FE00037462FD520463146FFF7EEFC01A8019455
:103FF000FFF7ACFC019B03F5E0735FFA8AFA50F817
:104000002330C3F301439A4507D10021204602F033
:104010009AFE5146204602F096FE01A80194FFF751
:1040200095FC019A01239340C0F82035D8F8003060
:10403000002BABD108F10408B9F1000F1DD14FF0EE
:1040400001099FE7BAF1020F0CD10321204602F0CB
:104050007AFE06F00503012BDFD139462046FFF733
:10406000B3FCDAE70221204602F06DFE032EF4D005
:10407000BAF1030FD1D1022EEEE74FF00040FFF767
:10408000EFFC4FF0A0421949D2F820350293C2F854
:104090002035D1F8202503921343C1F820257FF461
:1040A0006DAF25F00045012415B905B0BDE8F08FCE
:1040B00095FAA5F3B3FA83F304FA03F29B0003F134
:1040C000804303F5C04325EA0205D3F81005D3F871
:1040D0001015C0F30520C1F30141FFF775FCE3E7BC
:1040E00000600040F07A0000300000200003005023
:1040F000044AD2F80034DB07FBD50160BFF35F8FC1
:10410000704700BF00E001404FF080531A69B0FBD8
:10411000F2F302FB130373B9084B0222C3F8042520
:10412000C3F80805D3F80024D207FBD500220448C1
:10413000C3F8042570470348704700BF00E0014002
:104140000000AD0B0A00AD0B10B5054C0123C4F8FF
:104150000435FFF7CDFF0023C4F8043510BD00BFC0
:1041600000E0014001460148FFF700BBAC00002021
:1041700010B5144CA8220021204602F03BFA03237C
:104180002361114A6361114BA261E3614FF48063C3
:1041900023620023A3626362E36222660C4A6266C2
:1041A0001022A2662367E3666367BFF35F8F094A45
:1041B00012F8011DE1540133102BF9D1BFF35F8FC9
:1041C00010BD00BFD80E0020107B0000B1100020F1
:1041D000A1100020297B0000104B70B553F820403F
:1041E000013053F82060A64200D870BDD4E90035F4
:1041F00095B153B12846984738B10028B8BF40421E
:10420000EB68FF28A8BFFF201870EA68537843F0D6
:10421000010353700834E6E79847FBE7C4720000D7
:1042200008B5094B012203201A70FFF7D5FF00F0F3
:104230001FF90420FFF7D0FFFCF7CCF8034A137BEB
:1042400023F00103137308BDB114002048010020BE
:1042500008B50348034A0021121A02F0B8FD08BD50
:1042600028010020B414002008B50020FFF7B4FF97
:10427000184B83F30888184C636943F40073636137
:104280000025E02384F82230E57725766576A5764B
:1042900084F82050636A43F4E023636284F8235077
:1042A000FDF7B0FEFDF780FC4FF0FF33A362E36241
:1042B000FDF7B6FFFDF744FF02F06DFD0120FFF7AB
:1042C0008BFF0220FFF788FF04482B462A46294629
:1042D000FDF72AFD001D002000ED00E02142000056
:1042E00008B50648064A0749121A02F072FDBDE8F1
:1042F0000840054A0549064802F06BBD0000002051
:1043000022010020587B000000000000587B0000C4
:1043100000000020034B1B680BB9FEF7EBBF002029
:10432000704700BF800F002010B50E4B1C689C42E8
:1043300004D1FFF7EFFF6FF0004010BDFFF7EAFF79
:10434000002CF8D0D4E904321B1A62EBE072B3F10E
:10435000004F72F10001EEDA002AACBF18460020CF
:10436000EBE700BFB000002030B570B10B4B5B68CD
:1043700098420AD0036843B1D3E90421D0E9044547
:10438000121941EB0501C3E90421D0E900321360A1
:104390005A600023C0E9003330BD00BFB0000020E8
:1043A0002DE9F84F4FF02003EFF3118783F31288C4
:1043B000BFF36F8FDFF8B4902A4E2B4C3060D9F8E2
:1043C00000004FF0000A484508BF00204FF0000BE6
:1043D000D4E9001E33683D4688B3D0E904874FEA2C
:1043E000E37C43457CEB070206DAB8EB030267EB9C
:1043F0000C07C0E9042722E018EB01014EEBE8733B
:10440000C0E904ABC4E90013FFF7AEFF85F31188E0
:10441000BFF36F8F836898474FF02003EFF3118548
:1044200083F31288BFF36F8F3368D9F80000A3EBD2
:10443000080348452F463360CAD1D4E9001E5918F5
:104440004EEBE373C4E9001300243460FFF76CFF04
:104450002146FEF71BFF85F31188BFF36F8FBDE880
:10446000F88F00BF800F0020C8010020B00000209E
:10447000014801F021BF00BF2D7B000010B50A4CA0
:1044800023681BB101232360002010BD00F052F807
:104490000028F7D00138062803D8044B53F8200031
:1044A00010BD034810BD00BF840F0020DC72000067
:1044B000FE8FFFFFBFF34F8F0549064BCA6802F41A
:1044C000E0621343CB60BFF34F8F00BFFDE700BF37
:1044D00000ED00E00400FA0510B40A4B0A490B4C49
:1044E0004FF0FE32C3F800244968C3F80424C3F82F
:1044F0000824C3F80C240023C4F800355DF8044BED
:10450000084700BF00B00250B800002000A00250D1
:10451000D0E90012014BC3E900127047B800002037
:1045200038B131B1014400220346013088421A708B
:10453000FAD1704738B500F02FF820B1032400F00D
:1045400063F8204638BD00F031F898B900F0ACF8B7
:1045500098B90F4DD5F828391B0EF02B08D1D5F896
:10456000242A0C4B9A420AD0072400F017F8E6E7F9
:104570000624FAE70424204638BD0024F5E701208C
:1045800000F092F804460028F7D1C5F80C0AD8E7E5
:1045900000B002500000E02000207047002070476B
:1045A000014BC3F8040A704700B0025010B511481F
:1045B00000F048F800B110BD0F4800F043F80028A3
:1045C000F9D10E4C204600F03DF80028F3D10C4BF9
:1045D0000C481C6000F036F801460028EBD100F0D2
:1045E0002DF8044608B1204610BD00F03FF82046E3
:1045F000FAE700BFD0000020CC000020C800002057
:10460000C0000020C400002008B5084800F024F8CD
:10461000074800F021F8074800F01EF8064800F0AF
:104620001BF8BDE8084000F00BB800BFD000002028
:10463000CC000020C8000020C400002000207047EB
:10464000704700BF08B5034B02681B6810689847A5
:10465000002008BDE800002008B5034B02685B6835
:1046600010689847002008BDE800002070B5094C8C
:10467000094D2069AB68984718B1084B08485B683A
:104680009847084AEB68206900211160BDE8704036
:10469000184700BFD4000020E8000020B800002028
:1046A000F8720000880F0020F8B51A4D1A4E044623
:1046B000B26828699047E8B9184F3B684CB1A3B17C
:1046C000012B19D0013B3B602869F3689847002013
:1046D000F8BD43B9124A0121C2F800151149D1F8B9
:1046E0001029002AFBD101333B60F3682869984701
:1046F0000020F8BD0C48F8BD0A4AD2F81039002B4A
:10470000FBD1074A6FF07E40C2F80035FFF748FF43
:104710003B68D7E7D4000020E8000020880F002085
:1047200000A0025000B00250E98FFFFF10B5044610
:1047300050B1636813F0685F05D0064A934202D017
:1047400000232360626010BD034B04485B689847F8
:10475000EFE700BF2C5F5CA9B800002018730000D1
:10476000C8B143680D4A934213D013F0685F0ED06E
:10477000012350E8002F194640E8001C9CF0000F70
:10478000F7D1012AF5D0BFF35F8F002070470448AE
:104790007047044870476FF4E04070472C5F5CA995
:1047A000E98FFFFFEA8FFFFF80B14368094A934218
:1047B0000AD013F0685F05D0BFF35F8F002303605A
:1047C0001846704704487047044870476FF4E0404B
:1047D000704700BF2C5F5CA9E98FFFFFEA8FFFFFE6
:1047E00010B5044620B1044B63600022226010BD66
:1047F0000248FFF771FEF6E73A00003A4073000006
:1048000030B10268034B04489A4208BF0020704749
:1048100002487047DD55AABB8208F0007108F0001D
:1048200038B50D460446B0B1A0220021043002F094
:10483000F2FA95B10822294604F1640002F0F1FA77
:10484000082205F1200104F1840002F0EAFA044B89
:104850002360002038BD0348FCE70348FAE700BFA7
:10486000DD55AABB7108F0008308F0002DE9F7437D
:1048700005460E4699461146FFF7C2FF044600283A
:1048800040F08480002E00F08580002900F08480B4
:10489000B9F1200F40F0828005F14404082205F1AF
:1048A0000408204602F0BDFA05F12407082231462B
:1048B000404602F0B6FA06F120010822384602F01E
:1048C000B0FA02A94FF4807041F8049D02F09DFAFD
:1048D000002865D1334A4FF480731360012193603F
:1048E0000823314A00F02EFB0121084605232F4AF8
:1048F00000F028FB0823424601211C2000F022FB87
:1049000008233A460121032000F01CFB224608231D
:104910000121022000F016FB0823254A01211A205C
:1049200000F010FB0523234A01211B2000F00AFBA5
:104930000823214A0121142000F004FB08231F4A08
:104940000121152000F0FEFA082305F1640201217F
:10495000162000F0F7FA082305F184020121172040
:1049600000F0F0FA0823164A01210B2000F0EAFAC1
:1049700000F044FB0446019800F0D2FA114B002CE1
:1049800018BF1C46A421284602F047FA204603B06F
:10499000BDE8F0830C4CF9E70C4CF7E70C4CF5E75D
:1049A000084CEFE790B00250A47300001C740000A4
:1049B0006473000008740000C8730000E87300000E
:1049C000847300008408F0007608F0008008F0008E
:1049D0008108F0000C4BC2691A60826943F8042C0C
:1049E000426943F8082C026943F80C2CC26843F86A
:1049F000102C826843F8142C426843F8182C026883
:104A000043F81C2C704700BF5CB602500C4B1B686F
:104A1000C3610C4B1B6883610B4B1B6843610B4BE1
:104A20001B6803610A4B1B68C3600A4B1B688360E9
:104A3000094B1B684360094B1B680360704700BF4C
:104A40005CB6025058B6025054B6025050B60250EE
:104A50004CB6025048B6025044B6025040B602501E
:104A600030B10268034B04489A4208BF00207047E7
:104A700002487047DD55AABB0202F0000002F000B8
:104A800038B5044668B1051D7021284602F0C5F905
:104A900028462022044902F0BCF9044B2360002080
:104AA00038BD0348FCE700BF30740000DD55AABBE9
:104AB0000002F0002DE9F043284B04460E4615464F
:104AC0000FCB85B06F4687E80F002DB94FF0000976
:104AD000484605B0BDE8F0832046FFF7C1FF814698
:104AE0000028F5D1231D0193636AA3BB236F8BB10B
:104AF000C3F14008A84528BFA84604F1300031465C
:104B00001844424602F085F9236F43444644236724
:104B1000A5EB0805226F402A06D104F13001384682
:104B200000F0AEFB0023236705F03F0835F03F059A
:104B300005D031462A46384600F0A2FB2E44B8F193
:104B4000000FC3D04246314604F1300002F061F953
:104B5000C4F87080BCE7DFF80890B9E7F070000097
:104B60000C02F0002DE9FF41144B04460E460FCB1A
:104B70006F4687E80F002046FFF772FF8046B0B906
:104B8000CEB1636A251D01953BB901236362226F93
:104B900004F13001384600F073FB2B46043E243408
:104BA00053F8042B12BAA34246F8042FF8D140461A
:104BB00004B0BDE8F081DFF80880F8E7F07000008D
:104BC0000502F000084B1B681B0EF02B08D1074BA9
:104BD0001A68074B9A4205D1064B002018607047AF
:104BE000052070470620704728B9025024BA0250A9
:104BF0000000E0200CBA0250002230B549001346F4
:104C0000023840F6FC7502F1A05404F52C44A400CF
:104C1000904202F10102CABF236025605B181E2A80
:104C2000F1D1044A13600B445360034B034A1A60EA
:104C300030BD00BF78B0025084B0025020F80F00A1
:104C400030B51E4B85B01A46196800910099CC0703
:104C5000FAD500F1A05000F52C40800001681368DF
:104C60000193019BD807FAD5154B164C1868164DC1
:104C70001F30202390FBF3F00138002810DA0023C6
:104C80000130400153B1A0F120014FF00042134226
:104C900004D1013888424FEA5202F8D105B030BD44
:104CA00013680393039BDB07FAD5431823602B6833
:104CB0000293029B002BE3D10138DEE7B4B002502F
:104CC000ACB00250E4B00250DCB00250F0B51D6848
:104CD00085B001F01F040DB91F2C25D1154D2E46AE
:104CE0002F680197019FFF07FAD500F1A05000F54A
:104CF0002C408000006835680395039DED07FAD5C8
:104D00000D4D00EB611028600C48006802901F2CCC
:104D100018BFC94302980FBF106001F01F0100FACD
:104D200001F111600021196010684300C00F136089
:104D300005B0F0BDB4B00250E4B00250DCB0025097
:104D40000C4B18603F3020F03F0089014030586024
:104D50009960D9601961596199611C3306481960DD
:104D600082B002680192019AD207FAD5196002B0A6
:104D7000704700BF90B00250B4B0025038B5A0F1F7
:104D80002003B3F5426F05462CD88F2826D800F1B2
:104D9000470300F16604DB064FEA541400D00134E7
:104DA00064013F34A409013411B1A1421AD30C4665
:104DB000E3004FF48050B0FBF3F0202828BF202000
:104DC00002B11060084B01221A602146FFF714FF60
:104DD00028462146FFF7B4FF002038BD00F11F042C
:104DE0006409DDE70148F8E71CB802502221F00011
:104DF000F0B5454B89B01D461C680194019CE40741
:104E0000FAD5424BDFF80CE1DFF80CC113449B00EC
:104E100000241A680B181E2B88BFC0F11E011F3218
:104E20000B1852095343B3F5806F82BF4FF4806172
:104E3000B1FBF2F1091A00F1A05000F52C40274611
:104E4000A14233DC2B680493049BDB07FAD5304B7B
:104E50001B68296805910599CF07FAD52D4C2E4975
:104E6000236000231E46934203F1010040D120F04D
:104E700001022948194600268A423CD82968069131
:104E80000699CE07FAD5254909682868079007983A
:104E9000C007FAD52160204800210C468B422DD155
:104EA0001D4900209A422CD809B0F0BD2B6802930E
:104EB000029BDB07FAD503199B001B682E6803963B
:104EC000039EF607FAD5CEF800300023934203F193
:104ED000010306D1164623F00103B34204D801347E
:104EE000AEE7CCF80070F1E7CCF800700136F4E7DB
:104EF0000E600346B7E706600131BDE7046001318B
:104F0000CCE708600133CDE7B4B0025024AC001404
:104F10007CB00250D4B00250D8B0025078B00250E9
:104F200008B540B1202801464FF0070228BF2021D4
:104F30000020FFF75DFF024B00221A6008BD00BF92
:104F40001CB80250F0B5294D85B02C462E6800964D
:104F5000009EF607FAD500F1A05000F52C40800025
:104F60000568206801900198C707FAD52048214FAD
:104F7000056002EB8306B24229D15A1C1D4E22F075
:104F8000010200279A4227D823680293029BDE077A
:104F9000FAD5194B0B449B001B681F335B099A42DF
:104FA00013D2216803910399C907FAD5154400214A
:104FB0009B1A104A056008468B4210D85A1C0D49AE
:104FC00022F0010200209A420CD805B0F0BD52F840
:104FD00004CBC7F800C0CEE737600133D2E71060DA
:104FE0000131E9E708600133EDE700BFB4B00250DA
:104FF000D4B00250D8B0025024AC00142DE9F041D6
:10500000814B1D6898682033A0B01E461A68019233
:10501000019AD707FAD57D4B7D4A1A603268029211
:10502000029AD407FAD57B4A1A607B4A1446116863
:1050300003910399C907FAD5784A1168C1F3402151
:1050400037680497049FFF07FAD5754F1F602768DC
:105050000597059FFF07FAD51768002900F0CF8054
:10506000B90540F1CC80316806910699CF07FAD591
:105070006C491960216807910799C907FAD5116829
:10508000C1F3402137680897089FFF07FAD5664F9C
:105090001F6027680997099FFF07FAD51268002942
:1050A00000F0AF80910540F1AC8032680A920A9A14
:1050B000D207FAD5564A1A6032680B920B9AD70774
:1050C000FAD55A4A1A6031680C910C99CC07FAD576
:1050D0005749196031680D910D99C907FAD555499D
:1050E000196031680E910E99CF07FAD552491960AF
:1050F00031680F910F99CC07FAD550491960504B80
:105100001E46196810911099C907FAD53F4C4D4BAE
:10511000236033681193119BDB07FAD54A4B236058
:1051200033681293129BDF07FAD5484B23603A4B42
:105130009846196813911399C907FAD5324F386008
:1051400033681493149BDB07FAD5226033681593F8
:10515000159BD807FAD53E4B236033681693169BF0
:10516000D907FAD53B4B236033681793179BDA07AF
:10517000FAD5394B236033681893189BDB07FAD5AF
:10518000364B236033681993199BD807FAD5344BF3
:10519000236033681A931A9BD907FAD5314B2360E1
:1051A00033681B931B9BDA07FAD52F4B236000F063
:1051B0001DFC08BBD8F800301C931C9BDB07F9D5FD
:1051C0003D6033681D931D9BD907FAD5274B23609B
:1051D00033681E931E9BDA07FAD5254B2360D8F857
:1051E00000301F931F9BDB07F9D50C4B1B6813F492
:1051F000805F204B08BF184620B0BDE8F0811E48F4
:10520000FAE71E48F8E700BF90B0025080B00250A5
:1052100000100251C01F7229B4B0025088B0025071
:10522000C0CF0129C01F0E29C03F002940010249FB
:10523000003184A800001649400108A18044088874
:10524000B0B00250C044708880077A41C0077E41E8
:1052500000006A498006164940006E49000200219C
:1052600000822021408220218082242140A161A14E
:1052700000C861510308F1000108F1000208F100C3
:105280002DE9F74F314B44688046924699461A689B
:10529000002AFCD12E4B9B461A68002AFCD14FF005
:1052A000FF30019100F094FC802000F097FC294D24
:1052B000294A2A4F2A4E012307202B60A2F59E720D
:1052C000C2F83C011360636A3B60A36A3360D8F89C
:1052D000003042F8043CD8F808302046984701993D
:1052E000D9F80030002BFBD1BAF1000F20D11D4BB3
:1052F00004221A60D9F80030002BFBD1DBF800A0A3
:10530000BAF1000FFAD1D8F80C30204698473B6824
:1053100063623368A362144BC3F800A0C3F844A1CE
:10532000D9F80030002BFBD12B6003B0BDE8F08F23
:10533000236A012B04BF0C4A13600C4B40201960F8
:10534000C3F804A000F050FCD4E700BF10B902502D
:1053500020BC025018B8025000B90250CCB702501D
:10536000D0B70250C8B7025084B6025028BC0250D1
:1053700010B5544B98B019461A680192019AD20799
:10538000FAD5514B514A1A600A680292029AD40720
:10539000FAD54F4A1A600A680392039AD007FAD5E1
:1053A0004C4818600A680492049AD207FAD54A4A0F
:1053B0001A600A680592059AD407FAD5474A1A6016
:1053C0000A680692069AD207FAD5454A1A600A6810
:1053D0000792079AD407FAD5424A1A600A680892D7
:1053E000089AD207FAD5404A1A600A680992099ABF
:1053F000D407FAD53D4A1A600A680A920A9AD20777
:10540000FAD53B4A1A600A680B920B9AD407FAD570
:10541000384A1A600A680C920C9AD207FAD5364AB2
:105420001A600A680D920D9AD407FAD5334A1A60A9
:105430000A680E920E9AD207FAD5314A1A600A68A3
:105440000F920F9AD407FAD52E4A1A600A68109262
:10545000109AD207FAD52C4A1A601A4B19461C68C2
:105460001194119CE407FAD5174B18600868129044
:105470001298C407FAD51A600A681392139AD007D3
:10548000FAD5124A1A600A681492149AD207FAD509
:105490001E4A1A600A681592159AD407FAD51C4A52
:1054A0001A600A681692169AD007FAD5194A1A6035
:1054B0000A681792179AD207FAD5174A1A6018B0D5
:1054C00010BD00BFB0B0025080B002500093652103
:1054D00000043190409665900083612100C3302123
:1054E00000C3649000816190004610210081112169
:1054F0000041442100C320290C4610C800863121F8
:1055000000C3602140C128294096652100133190D5
:1055100040962529594614C84004324910B5494BD4
:1055200094B019461A680092009AD207FAD5464BF1
:10553000464A1A600A680192019AD407FAD5444A89
:105540001A600A680292029AD007FAD54148186098
:105550000A680392039AD207FAD53F4A1A600A688A
:105560000492049AD407FAD53C4A1A600A68059254
:10557000059AD207FAD53A4A1A600A680692069A3C
:10558000D407FAD5374A1A600A680792079AD207F1
:10559000FAD5354A1A600A680892089AD407FAD5EB
:1055A000324A1A600A680992099AD207FAD5304A33
:1055B0001A600A680A920A9AD407FAD52D4A1A6024
:1055C0000A680B920B9AD207FAD52B4A1A600A681E
:1055D0000C920C9AD407FAD5284A1A600A680D92E0
:1055E0000D9AD207FAD5264A1A600A680E920E9AC8
:1055F000D407FAD5234A1A600A680F920F9AD20785
:10560000FAD5214A1A600F4B19461C681094109C59
:10561000E407FAD50C4B1860086811901198C4077C
:10562000FAD51A600A681292129AD007FAD5174A68
:105630001A600A681392139AD207FAD5144A1A60AC
:1056400014B010BDB0B0025080B0025080906521FF
:105650000004099040966590808061218020082197
:10566000802064900081619000461021008111210A
:105670000041442180202029024610C800860921CB
:1056800080206021402128294096652140962529C7
:10569000594614C810B5504B96B01C461A68019272
:1056A000019AD207FAD54D4B4D4A1A6022680292F0
:1056B000029AD207FAD54B4A1A604B4A42EA804016
:1056C00022680392039AD207FAD5186022680492DE
:1056D000049AD007FAD5454A1A60A2F5800242EA38
:1056E000814122680592059AD207FAD5196022688D
:1056F0000692069AD007FAD53D4A1A6022680792A8
:10570000079AD107FAD53B4A1A6022680892089A8C
:10571000D207FAD5384A1A6022680992099AD00746
:10572000FAD5364A1A6022680A920A9AD107FAD53F
:10573000334A1A6022680B920B9AD207FAD5314A83
:105740001A6022680C920C9AD007FAD52E4A1A6079
:1057500022680D920D9AD107FAD52C4A1A60226858
:105760000E920E9AD207FAD5294A1A6022680F9231
:105770000F9AD007FAD5274A1A602168109110991C
:10578000C907FAD51A60144B1A4619681191119974
:10579000C807FAD5114B2049196011681291129966
:1057A000C907FAD51D491960116813911399CC07DF
:1057B000FAD50B491960116814911499C807FAD5E4
:1057C00017491960116815911599C907FAD5154A35
:1057D0001A6016B010BD00BFB0B0025080B00250C9
:1057E0004004419000862929D81001C840144190F6
:1057F00040142129401465210034409000310C9060
:10580000C0400C90C030202940960D90004160901F
:10581000031645C80086112100416021594644C83D
:105820004014459040142D9070B5264888B0054628
:1058300004680094009CE607FAD52348234C0460D2
:10584000234C44EA83432C680194019CE407FAD575
:105850000360930143EA824242F0104444F4C0449E
:105860002B680293029BDE07FAD504602B68039332
:10587000039BDB07FAD5174B03608B0143EA814199
:1058800041F0104343F4C0432E680496049EF6078B
:10589000FAD503602B680593059BDE07FAD50460F3
:1058A00041F058412B680693069BDC07FAD501604E
:1058B00042F058422B680793079BDB07FAD502603A
:1058C00008B070BDB0B0025080B00250C0210229B3
:1058D0008071009880611890354B8EB019461A6817
:1058E0000092009AD207FAD5324B334A1A600A68FE
:1058F0000192019AD007FAD5304A1A600A680292DA
:10590000029AD207FAD52E4A1A600A680392039ABD
:10591000D007FAD52B4A1A600A680492049AD20773
:10592000FAD5294A1A600A680592059AD007FAD56D
:10593000264A1A600A680692069AD207FAD5244ABD
:105940001A600A680792079AD007FAD5214A1A60A6
:105950000A680892089AD207FAD51F4A1A600A689C
:105960000992099AD007FAD51C4A1A600A680A9265
:105970000A9AD207FAD51A4A1A6008680B900B984F
:10598000C007FAD51A600A680C920C9AD007FAD5AB
:10599000144A1A600A680D920D9AD207FAD5124A73
:1059A0001A600E210D230F2200200EB0FFF73CBF1E
:1059B000B0B0025080B002508043012940633921C9
:1059C000807001298020542100D13490C04034904F
:1059D000C0302029C0530D9000413890832308C85F
:1059E00080E3102100413821CF4308C82DE9F04160
:1059F000012392B0CDE90333624B1D461A6805922C
:105A0000059AD207FAD5604C604B2360604B19466B
:105A10001A680692069AD707FAD55E4B1A68D6041A
:105A200000F1A8802A680792079AD007FAD55A4A47
:105A300022600A680892089AD207FAD51E68C6F34F
:105A40000036002E40F098801220FFF7F9F8074644
:105A50001320FFF7F5F887428CBF12201320FFF7C1
:105A6000EFF8471EFFF738FF03AB01AA39461220B3
:105A7000FFF72CF904AB804602AA39461320FFF742
:105A800025F900EB4800022832D003283ED0012837
:105A900074D12B680993099BDB07FAD53F4B236030
:105AA0002B680A930A9BD807FAD53D4B23602B68D5
:105AB0000F930F9BD907FAD53A4B23602B681093AD
:105AC000109BDA07FAD5384B23602B681193119B92
:105AD000DB07FAD5354B2360013F25D5102319226A
